{
  "contractName": "Exchange",
  "abi": [
    {
      "inputs": [
        {
          "internalType": "address",
          "name": "_feeAccount",
          "type": "address"
        },
        {
          "internalType": "uint256",
          "name": "_feePercent",
          "type": "uint256"
        }
      ],
      "stateMutability": "nonpayable",
      "type": "constructor"
    },
    {
      "anonymous": false,
      "inputs": [
        {
          "indexed": false,
          "internalType": "uint256",
          "name": "id",
          "type": "uint256"
        },
        {
          "indexed": false,
          "internalType": "address",
          "name": "user",
          "type": "address"
        },
        {
          "indexed": false,
          "internalType": "address",
          "name": "tokenGet",
          "type": "address"
        },
        {
          "indexed": false,
          "internalType": "uint256",
          "name": "amountGet",
          "type": "uint256"
        },
        {
          "indexed": false,
          "internalType": "address",
          "name": "tokenGive",
          "type": "address"
        },
        {
          "indexed": false,
          "internalType": "uint256",
          "name": "amountGive",
          "type": "uint256"
        },
        {
          "indexed": false,
          "internalType": "uint256",
          "name": "timestamp",
          "type": "uint256"
        }
      ],
      "name": "Cancel",
      "type": "event"
    },
    {
      "anonymous": false,
      "inputs": [
        {
          "indexed": false,
          "internalType": "address",
          "name": "token",
          "type": "address"
        },
        {
          "indexed": false,
          "internalType": "address",
          "name": "user",
          "type": "address"
        },
        {
          "indexed": false,
          "internalType": "uint256",
          "name": "amount",
          "type": "uint256"
        },
        {
          "indexed": false,
          "internalType": "uint256",
          "name": "balance",
          "type": "uint256"
        }
      ],
      "name": "Deposit",
      "type": "event"
    },
    {
      "anonymous": false,
      "inputs": [
        {
          "indexed": false,
          "internalType": "uint256",
          "name": "id",
          "type": "uint256"
        },
        {
          "indexed": false,
          "internalType": "address",
          "name": "user",
          "type": "address"
        },
        {
          "indexed": false,
          "internalType": "address",
          "name": "tokenGet",
          "type": "address"
        },
        {
          "indexed": false,
          "internalType": "uint256",
          "name": "amountGet",
          "type": "uint256"
        },
        {
          "indexed": false,
          "internalType": "address",
          "name": "tokenGive",
          "type": "address"
        },
        {
          "indexed": false,
          "internalType": "uint256",
          "name": "amountGive",
          "type": "uint256"
        },
        {
          "indexed": false,
          "internalType": "uint256",
          "name": "timestamp",
          "type": "uint256"
        }
      ],
      "name": "Order",
      "type": "event"
    },
    {
      "anonymous": false,
      "inputs": [
        {
          "indexed": false,
          "internalType": "uint256",
          "name": "id",
          "type": "uint256"
        },
        {
          "indexed": false,
          "internalType": "address",
          "name": "user",
          "type": "address"
        },
        {
          "indexed": false,
          "internalType": "address",
          "name": "tokenGet",
          "type": "address"
        },
        {
          "indexed": false,
          "internalType": "uint256",
          "name": "amountGet",
          "type": "uint256"
        },
        {
          "indexed": false,
          "internalType": "address",
          "name": "tokenGive",
          "type": "address"
        },
        {
          "indexed": false,
          "internalType": "uint256",
          "name": "amountGive",
          "type": "uint256"
        },
        {
          "indexed": false,
          "internalType": "address",
          "name": "userFill",
          "type": "address"
        },
        {
          "indexed": false,
          "internalType": "uint256",
          "name": "timestamp",
          "type": "uint256"
        }
      ],
      "name": "Trade",
      "type": "event"
    },
    {
      "anonymous": false,
      "inputs": [
        {
          "indexed": false,
          "internalType": "address",
          "name": "token",
          "type": "address"
        },
        {
          "indexed": false,
          "internalType": "address",
          "name": "user",
          "type": "address"
        },
        {
          "indexed": false,
          "internalType": "uint256",
          "name": "amount",
          "type": "uint256"
        },
        {
          "indexed": false,
          "internalType": "uint256",
          "name": "balance",
          "type": "uint256"
        }
      ],
      "name": "Withdraw",
      "type": "event"
    },
    {
      "stateMutability": "nonpayable",
      "type": "fallback"
    },
    {
      "inputs": [],
      "name": "feeAccount",
      "outputs": [
        {
          "internalType": "address",
          "name": "",
          "type": "address"
        }
      ],
      "stateMutability": "view",
      "type": "function",
      "constant": true
    },
    {
      "inputs": [],
      "name": "feePercent",
      "outputs": [
        {
          "internalType": "uint256",
          "name": "",
          "type": "uint256"
        }
      ],
      "stateMutability": "view",
      "type": "function",
      "constant": true
    },
    {
      "inputs": [
        {
          "internalType": "uint256",
          "name": "",
          "type": "uint256"
        }
      ],
      "name": "orderCancelled",
      "outputs": [
        {
          "internalType": "bool",
          "name": "",
          "type": "bool"
        }
      ],
      "stateMutability": "view",
      "type": "function",
      "constant": true
    },
    {
      "inputs": [],
      "name": "orderCount",
      "outputs": [
        {
          "internalType": "uint256",
          "name": "",
          "type": "uint256"
        }
      ],
      "stateMutability": "view",
      "type": "function",
      "constant": true
    },
    {
      "inputs": [
        {
          "internalType": "uint256",
          "name": "",
          "type": "uint256"
        }
      ],
      "name": "orderFilled",
      "outputs": [
        {
          "internalType": "bool",
          "name": "",
          "type": "bool"
        }
      ],
      "stateMutability": "view",
      "type": "function",
      "constant": true
    },
    {
      "inputs": [
        {
          "internalType": "uint256",
          "name": "",
          "type": "uint256"
        }
      ],
      "name": "orders",
      "outputs": [
        {
          "internalType": "uint256",
          "name": "id",
          "type": "uint256"
        },
        {
          "internalType": "address",
          "name": "user",
          "type": "address"
        },
        {
          "internalType": "address",
          "name": "tokenGet",
          "type": "address"
        },
        {
          "internalType": "uint256",
          "name": "amountGet",
          "type": "uint256"
        },
        {
          "internalType": "address",
          "name": "tokenGive",
          "type": "address"
        },
        {
          "internalType": "uint256",
          "name": "amountGive",
          "type": "uint256"
        },
        {
          "internalType": "uint256",
          "name": "timestamp",
          "type": "uint256"
        }
      ],
      "stateMutability": "view",
      "type": "function",
      "constant": true
    },
    {
      "inputs": [
        {
          "internalType": "address",
          "name": "",
          "type": "address"
        },
        {
          "internalType": "address",
          "name": "",
          "type": "address"
        }
      ],
      "name": "tokens",
      "outputs": [
        {
          "internalType": "uint256",
          "name": "",
          "type": "uint256"
        }
      ],
      "stateMutability": "view",
      "type": "function",
      "constant": true
    },
    {
      "inputs": [
        {
          "internalType": "address",
          "name": "_token",
          "type": "address"
        },
        {
          "internalType": "uint256",
          "name": "_amount",
          "type": "uint256"
        }
      ],
      "name": "depositToken",
      "outputs": [],
      "stateMutability": "nonpayable",
      "type": "function"
    },
    {
      "inputs": [
        {
          "internalType": "address",
          "name": "_token",
          "type": "address"
        },
        {
          "internalType": "uint256",
          "name": "_amount",
          "type": "uint256"
        }
      ],
      "name": "withdrawToken",
      "outputs": [],
      "stateMutability": "nonpayable",
      "type": "function"
    },
    {
      "inputs": [],
      "name": "depositEther",
      "outputs": [],
      "stateMutability": "payable",
      "type": "function",
      "payable": true
    },
    {
      "inputs": [
        {
          "internalType": "uint256",
          "name": "_amount",
          "type": "uint256"
        }
      ],
      "name": "withdrawEther",
      "outputs": [],
      "stateMutability": "payable",
      "type": "function",
      "payable": true
    },
    {
      "inputs": [
        {
          "internalType": "address",
          "name": "_token",
          "type": "address"
        },
        {
          "internalType": "address",
          "name": "_user",
          "type": "address"
        }
      ],
      "name": "balanceOf",
      "outputs": [
        {
          "internalType": "uint256",
          "name": "",
          "type": "uint256"
        }
      ],
      "stateMutability": "view",
      "type": "function",
      "constant": true
    },
    {
      "inputs": [
        {
          "internalType": "address",
          "name": "_tokenGet",
          "type": "address"
        },
        {
          "internalType": "uint256",
          "name": "_amountGet",
          "type": "uint256"
        },
        {
          "internalType": "address",
          "name": "_tokenGive",
          "type": "address"
        },
        {
          "internalType": "uint256",
          "name": "_amountGive",
          "type": "uint256"
        }
      ],
      "name": "makeOrder",
      "outputs": [],
      "stateMutability": "nonpayable",
      "type": "function"
    },
    {
      "inputs": [
        {
          "internalType": "uint256",
          "name": "_id",
          "type": "uint256"
        }
      ],
      "name": "cancelOrder",
      "outputs": [],
      "stateMutability": "nonpayable",
      "type": "function"
    },
    {
      "inputs": [
        {
          "internalType": "uint256",
          "name": "_id",
          "type": "uint256"
        }
      ],
      "name": "fillOrder",
      "outputs": [],
      "stateMutability": "nonpayable",
      "type": "function"
    }
  ],
  "bytecode": "0x60806040523480156200001157600080fd5b50604051620023b3380380620023b383398181016040528101906200003791906200012b565b816000806101000a81548173ffffffffffffffffffffffffffffffffffffffff021916908373ffffffffffffffffffffffffffffffffffffffff16021790555080600181905550505062000172565b600080fd5b600073ffffffffffffffffffffffffffffffffffffffff82169050919050565b6000620000b8826200008b565b9050919050565b620000ca81620000ab565b8114620000d657600080fd5b50565b600081519050620000ea81620000bf565b92915050565b6000819050919050565b6200010581620000f0565b81146200011157600080fd5b50565b6000815190506200012581620000fa565b92915050565b6000806040838503121562000145576200014462000086565b5b60006200015585828601620000d9565b9250506020620001688582860162000114565b9150509250929050565b61223180620001826000396000f3fe6080604052600436106100ec5760003560e01c806367b830ad1161008a5780639e281a98116100595780639e281a98146102c4578063a85c38ef146102ed578063e9c1896614610330578063f7888aec1461036d576100ed565b806367b830ad1461023d5780637fd6f15c1461026657806398ea5fca146102915780639a5c90aa1461029b576100ed565b80634a93e0da116100c65780634a93e0da1461016f578063508493bc146101ac578063514fcac7146101e957806365e17c9d14610212576100ed565b80632453ffa8146100ff578063338b5dea1461012a5780633bed33ce14610153576100ed565b5b3480156100f957600080fd5b50600080fd5b34801561010b57600080fd5b506101146103aa565b6040516101219190611c7f565b60405180910390f35b34801561013657600080fd5b50610151600480360381019061014c9190611d29565b6103b0565b005b61016d60048036038101906101689190611d69565b61063f565b005b34801561017b57600080fd5b5061019660048036038101906101919190611d69565b6108db565b6040516101a39190611db1565b60405180910390f35b3480156101b857600080fd5b506101d360048036038101906101ce9190611dcc565b6108fb565b6040516101e09190611c7f565b60405180910390f35b3480156101f557600080fd5b50610210600480360381019061020b9190611d69565b610920565b005b34801561021e57600080fd5b50610227610a6a565b6040516102349190611e1b565b60405180910390f35b34801561024957600080fd5b50610264600480360381019061025f9190611d69565b610a8e565b005b34801561027257600080fd5b5061027b610b53565b6040516102889190611c7f565b60405180910390f35b610299610b59565b005b3480156102a757600080fd5b506102c260048036038101906102bd9190611e36565b610d24565b005b3480156102d057600080fd5b506102eb60048036038101906102e69190611d29565b610f17565b005b3480156102f957600080fd5b50610314600480360381019061030f9190611d69565b61122d565b6040516103279796959493929190611e9d565b60405180910390f35b34801561033c57600080fd5b5061035760048036038101906103529190611d69565b6112cf565b6040516103649190611db1565b60405180910390f35b34801561037957600080fd5b50610394600480360381019061038f9190611dcc565b6112ef565b6040516103a19190611c7f565b60405180910390f35b60045481565b600073ffffffffffffffffffffffffffffffffffffffff168273ffffffffffffffffffffffffffffffffffffffff1614156103ea57600080fd5b8173ffffffffffffffffffffffffffffffffffffffff166323b872dd3330846040518463ffffffff1660e01b815260040161042793929190611f0c565b6020604051808303816000875af1158015610446573d6000803e3d6000fd5b505050506040513d601f19601f8201168201806040525081019061046a9190611f6f565b61047357600080fd5b61050281600260008573ffffffffffffffffffffffffffffffffffffffff1673ffffffffffffffffffffffffffffffffffffffff16815260200190815260200160002060003373ffffffffffffffffffffffffffffffffffffffff1673ffffffffffffffffffffffffffffffffffffffff1681526020019081526020016000205461137690919063ffffffff16565b600260008473ffffffffffffffffffffffffffffffffffffffff1673ffffffffffffffffffffffffffffffffffffffff16815260200190815260200160002060003373ffffffffffffffffffffffffffffffffffffffff1673ffffffffffffffffffffffffffffffffffffffff168152602001908152602001600020819055507fdcbc1c05240f31ff3ad067ef1ee35ce4997762752e3a095284754544f4c709d7823383600260008773ffffffffffffffffffffffffffffffffffffffff1673ffffffffffffffffffffffffffffffffffffffff16815260200190815260200160002060003373ffffffffffffffffffffffffffffffffffffffff1673ffffffffffffffffffffffffffffffffffffffff168152602001908152602001600020546040516106339493929190611f9c565b60405180910390a15050565b80600260008073ffffffffffffffffffffffffffffffffffffffff1673ffffffffffffffffffffffffffffffffffffffff16815260200190815260200160002060003373ffffffffffffffffffffffffffffffffffffffff1673ffffffffffffffffffffffffffffffffffffffff1681526020019081526020016000205410156106c857600080fd5b61075781600260008073ffffffffffffffffffffffffffffffffffffffff1673ffffffffffffffffffffffffffffffffffffffff16815260200190815260200160002060003373ffffffffffffffffffffffffffffffffffffffff1673ffffffffffffffffffffffffffffffffffffffff1681526020019081526020016000205461138c90919063ffffffff16565b600260008073ffffffffffffffffffffffffffffffffffffffff1673ffffffffffffffffffffffffffffffffffffffff16815260200190815260200160002060003373ffffffffffffffffffffffffffffffffffffffff1673ffffffffffffffffffffffffffffffffffffffff168152602001908152602001600020819055503373ffffffffffffffffffffffffffffffffffffffff166108fc829081150290604051600060405180830381858888f1935050505015801561081d573d6000803e3d6000fd5b507ff341246adaac6f497bc2a656f546ab9e182111d630394f0c57c710a59a2cb56760003383600260008073ffffffffffffffffffffffffffffffffffffffff1673ffffffffffffffffffffffffffffffffffffffff16815260200190815260200160002060003373ffffffffffffffffffffffffffffffffffffffff1673ffffffffffffffffffffffffffffffffffffffff168152602001908152602001600020546040516108d09493929190611f9c565b60405180910390a150565b60066020528060005260406000206000915054906101000a900460ff1681565b6002602052816000526040600020602052806000526040600020600091509150505481565b60006003600083815260200190815260200160002090503373ffffffffffffffffffffffffffffffffffffffff168160010160009054906101000a900473ffffffffffffffffffffffffffffffffffffffff1673ffffffffffffffffffffffffffffffffffffffff161461099357600080fd5b818160000154146109a357600080fd5b60016005600084815260200190815260200160002060006101000a81548160ff0219169083151502179055507f77de1da0be5f2d3b110d05c6694e5c4ff2d9da7cd23d84353ecf78c7b5acec618160000154338360020160009054906101000a900473ffffffffffffffffffffffffffffffffffffffff1684600301548560040160009054906101000a900473ffffffffffffffffffffffffffffffffffffffff16866005015442604051610a5e9796959493929190611e9d565b60405180910390a15050565b60008054906101000a900473ffffffffffffffffffffffffffffffffffffffff1681565b600081118015610aa057506004548111155b610aa957600080fd5b6006600082815260200190815260200160002060009054906101000a900460ff1615610ad457600080fd5b6005600082815260200190815260200160002060009054906101000a900460ff1615610aff57600080fd5b6000600360008381526020019081526020016000209050610b1f816113a2565b6001600660008360000154815260200190815260200160002060006101000a81548160ff0219169083151502179055505050565b60015481565b610be834600260008073ffffffffffffffffffffffffffffffffffffffff1673ffffffffffffffffffffffffffffffffffffffff16815260200190815260200160002060003373ffffffffffffffffffffffffffffffffffffffff1673ffffffffffffffffffffffffffffffffffffffff1681526020019081526020016000205461137690919063ffffffff16565b600260008073ffffffffffffffffffffffffffffffffffffffff1673ffffffffffffffffffffffffffffffffffffffff16815260200190815260200160002060003373ffffffffffffffffffffffffffffffffffffffff1673ffffffffffffffffffffffffffffffffffffffff168152602001908152602001600020819055507fdcbc1c05240f31ff3ad067ef1ee35ce4997762752e3a095284754544f4c709d760003334600260008073ffffffffffffffffffffffffffffffffffffffff1673ffffffffffffffffffffffffffffffffffffffff16815260200190815260200160002060003373ffffffffffffffffffffffffffffffffffffffff1673ffffffffffffffffffffffffffffffffffffffff16815260200190815260200160002054604051610d1a9493929190611f9c565b60405180910390a1565b610d3a600160045461137690919063ffffffff16565b6004819055506040518060e0016040528060045481526020013373ffffffffffffffffffffffffffffffffffffffff1681526020018573ffffffffffffffffffffffffffffffffffffffff1681526020018481526020018373ffffffffffffffffffffffffffffffffffffffff168152602001828152602001428152506003600060045481526020019081526020016000206000820151816000015560208201518160010160006101000a81548173ffffffffffffffffffffffffffffffffffffffff021916908373ffffffffffffffffffffffffffffffffffffffff16021790555060408201518160020160006101000a81548173ffffffffffffffffffffffffffffffffffffffff021916908373ffffffffffffffffffffffffffffffffffffffff1602179055506060820151816003015560808201518160040160006101000a81548173ffffffffffffffffffffffffffffffffffffffff021916908373ffffffffffffffffffffffffffffffffffffffff16021790555060a0820151816005015560c082015181600601559050507f9d33853d43e3607b4cc01fdc78338ff2dca6fef7db9232dae6d3eb55fbc3b109600454338686868642604051610f099796959493929190611e9d565b60405180910390a150505050565b600073ffffffffffffffffffffffffffffffffffffffff168273ffffffffffffffffffffffffffffffffffffffff161415610f5157600080fd5b80600260008473ffffffffffffffffffffffffffffffffffffffff1673ffffffffffffffffffffffffffffffffffffffff16815260200190815260200160002060003373ffffffffffffffffffffffffffffffffffffffff1673ffffffffffffffffffffffffffffffffffffffff168152602001908152602001600020541015610fda57600080fd5b61106981600260008573ffffffffffffffffffffffffffffffffffffffff1673ffffffffffffffffffffffffffffffffffffffff16815260200190815260200160002060003373ffffffffffffffffffffffffffffffffffffffff1673ffffffffffffffffffffffffffffffffffffffff1681526020019081526020016000205461138c90919063ffffffff16565b600260008473ffffffffffffffffffffffffffffffffffffffff1673ffffffffffffffffffffffffffffffffffffffff16815260200190815260200160002060003373ffffffffffffffffffffffffffffffffffffffff1673ffffffffffffffffffffffffffffffffffffffff168152602001908152602001600020819055508173ffffffffffffffffffffffffffffffffffffffff1663a9059cbb33836040518363ffffffff1660e01b8152600401611124929190611fe1565b6020604051808303816000875af1158015611143573d6000803e3d6000fd5b505050506040513d601f19601f820116820180604052508101906111679190611f6f565b61117057600080fd5b7ff341246adaac6f497bc2a656f546ab9e182111d630394f0c57c710a59a2cb567823383600260008773ffffffffffffffffffffffffffffffffffffffff1673ffffffffffffffffffffffffffffffffffffffff16815260200190815260200160002060003373ffffffffffffffffffffffffffffffffffffffff1673ffffffffffffffffffffffffffffffffffffffff168152602001908152602001600020546040516112219493929190611f9c565b60405180910390a15050565b60036020528060005260406000206000915090508060000154908060010160009054906101000a900473ffffffffffffffffffffffffffffffffffffffff16908060020160009054906101000a900473ffffffffffffffffffffffffffffffffffffffff16908060030154908060040160009054906101000a900473ffffffffffffffffffffffffffffffffffffffff16908060050154908060060154905087565b60056020528060005260406000206000915054906101000a900460ff1681565b6000600260008473ffffffffffffffffffffffffffffffffffffffff1673ffffffffffffffffffffffffffffffffffffffff16815260200190815260200160002060008373ffffffffffffffffffffffffffffffffffffffff1673ffffffffffffffffffffffffffffffffffffffff16815260200190815260200160002054905092915050565b600081836113849190612039565b905092915050565b6000818361139a919061208f565b905092915050565b60006113d060646113c26001548560050154611c3a90919063ffffffff16565b611c5090919063ffffffff16565b905061149b6113ec82846003015461137690919063ffffffff16565b600260008560020160009054906101000a900473ffffffffffffffffffffffffffffffffffffffff1673ffffffffffffffffffffffffffffffffffffffff1673ffffffffffffffffffffffffffffffffffffffff16815260200190815260200160002060003373ffffffffffffffffffffffffffffffffffffffff1673ffffffffffffffffffffffffffffffffffffffff1681526020019081526020016000205461138c90919063ffffffff16565b600260008460020160009054906101000a900473ffffffffffffffffffffffffffffffffffffffff1673ffffffffffffffffffffffffffffffffffffffff1673ffffffffffffffffffffffffffffffffffffffff16815260200190815260200160002060003373ffffffffffffffffffffffffffffffffffffffff1673ffffffffffffffffffffffffffffffffffffffff1681526020019081526020016000208190555061161a8260030154600260008560020160009054906101000a900473ffffffffffffffffffffffffffffffffffffffff1673ffffffffffffffffffffffffffffffffffffffff1673ffffffffffffffffffffffffffffffffffffffff16815260200190815260200160002060008560010160009054906101000a900473ffffffffffffffffffffffffffffffffffffffff1673ffffffffffffffffffffffffffffffffffffffff1673ffffffffffffffffffffffffffffffffffffffff1681526020019081526020016000205461137690919063ffffffff16565b600260008460020160009054906101000a900473ffffffffffffffffffffffffffffffffffffffff1673ffffffffffffffffffffffffffffffffffffffff1673ffffffffffffffffffffffffffffffffffffffff16815260200190815260200160002060008460010160009054906101000a900473ffffffffffffffffffffffffffffffffffffffff1673ffffffffffffffffffffffffffffffffffffffff1673ffffffffffffffffffffffffffffffffffffffff168152602001908152602001600020819055506117b681600260008560020160009054906101000a900473ffffffffffffffffffffffffffffffffffffffff1673ffffffffffffffffffffffffffffffffffffffff1673ffffffffffffffffffffffffffffffffffffffff16815260200190815260200160002060008060009054906101000a900473ffffffffffffffffffffffffffffffffffffffff1673ffffffffffffffffffffffffffffffffffffffff1673ffffffffffffffffffffffffffffffffffffffff1681526020019081526020016000205461137690919063ffffffff16565b600260008460020160009054906101000a900473ffffffffffffffffffffffffffffffffffffffff1673ffffffffffffffffffffffffffffffffffffffff1673ffffffffffffffffffffffffffffffffffffffff16815260200190815260200160002060008060009054906101000a900473ffffffffffffffffffffffffffffffffffffffff1673ffffffffffffffffffffffffffffffffffffffff1673ffffffffffffffffffffffffffffffffffffffff168152602001908152602001600020819055506119568260050154600260008560040160009054906101000a900473ffffffffffffffffffffffffffffffffffffffff1673ffffffffffffffffffffffffffffffffffffffff1673ffffffffffffffffffffffffffffffffffffffff16815260200190815260200160002060008560010160009054906101000a900473ffffffffffffffffffffffffffffffffffffffff1673ffffffffffffffffffffffffffffffffffffffff1673ffffffffffffffffffffffffffffffffffffffff1681526020019081526020016000205461138c90919063ffffffff16565b600260008460040160009054906101000a900473ffffffffffffffffffffffffffffffffffffffff1673ffffffffffffffffffffffffffffffffffffffff1673ffffffffffffffffffffffffffffffffffffffff16815260200190815260200160002060008460010160009054906101000a900473ffffffffffffffffffffffffffffffffffffffff1673ffffffffffffffffffffffffffffffffffffffff1673ffffffffffffffffffffffffffffffffffffffff16815260200190815260200160002081905550611ad58260050154600260008560040160009054906101000a900473ffffffffffffffffffffffffffffffffffffffff1673ffffffffffffffffffffffffffffffffffffffff1673ffffffffffffffffffffffffffffffffffffffff16815260200190815260200160002060003373ffffffffffffffffffffffffffffffffffffffff1673ffffffffffffffffffffffffffffffffffffffff1681526020019081526020016000205461137690919063ffffffff16565b600260008460040160009054906101000a900473ffffffffffffffffffffffffffffffffffffffff1673ffffffffffffffffffffffffffffffffffffffff1673ffffffffffffffffffffffffffffffffffffffff16815260200190815260200160002060003373ffffffffffffffffffffffffffffffffffffffff1673ffffffffffffffffffffffffffffffffffffffff168152602001908152602001600020819055507f0dddf4182dc0fc1a311cb75f049c97403c6b8a99cf6b2229a36e7c526acb3f8182600001548360010160009054906101000a900473ffffffffffffffffffffffffffffffffffffffff168460020160009054906101000a900473ffffffffffffffffffffffffffffffffffffffff1685600301548660040160009054906101000a900473ffffffffffffffffffffffffffffffffffffffff1687600501543342604051611c2e9897969594939291906120c3565b60405180910390a15050565b60008183611c489190612141565b905092915050565b60008183611c5e91906121ca565b905092915050565b6000819050919050565b611c7981611c66565b82525050565b6000602082019050611c946000830184611c70565b92915050565b600080fd5b600073ffffffffffffffffffffffffffffffffffffffff82169050919050565b6000611cca82611c9f565b9050919050565b611cda81611cbf565b8114611ce557600080fd5b50565b600081359050611cf781611cd1565b92915050565b611d0681611c66565b8114611d1157600080fd5b50565b600081359050611d2381611cfd565b92915050565b60008060408385031215611d4057611d3f611c9a565b5b6000611d4e85828601611ce8565b9250506020611d5f85828601611d14565b9150509250929050565b600060208284031215611d7f57611d7e611c9a565b5b6000611d8d84828501611d14565b91505092915050565b60008115159050919050565b611dab81611d96565b82525050565b6000602082019050611dc66000830184611da2565b92915050565b60008060408385031215611de357611de2611c9a565b5b6000611df185828601611ce8565b9250506020611e0285828601611ce8565b9150509250929050565b611e1581611cbf565b82525050565b6000602082019050611e306000830184611e0c565b92915050565b60008060008060808587031215611e5057611e4f611c9a565b5b6000611e5e87828801611ce8565b9450506020611e6f87828801611d14565b9350506040611e8087828801611ce8565b9250506060611e9187828801611d14565b91505092959194509250565b600060e082019050611eb2600083018a611c70565b611ebf6020830189611e0c565b611ecc6040830188611e0c565b611ed96060830187611c70565b611ee66080830186611e0c565b611ef360a0830185611c70565b611f0060c0830184611c70565b98975050505050505050565b6000606082019050611f216000830186611e0c565b611f2e6020830185611e0c565b611f3b6040830184611c70565b949350505050565b611f4c81611d96565b8114611f5757600080fd5b50565b600081519050611f6981611f43565b92915050565b600060208284031215611f8557611f84611c9a565b5b6000611f9384828501611f5a565b91505092915050565b6000608082019050611fb16000830187611e0c565b611fbe6020830186611e0c565b611fcb6040830185611c70565b611fd86060830184611c70565b95945050505050565b6000604082019050611ff66000830185611e0c565b6120036020830184611c70565b9392505050565b7f4e487b7100000000000000000000000000000000000000000000000000000000600052601160045260246000fd5b600061204482611c66565b915061204f83611c66565b9250827fffffffffffffffffffffffffffffffffffffffffffffffffffffffffffffffff038211156120845761208361200a565b5b828201905092915050565b600061209a82611c66565b91506120a583611c66565b9250828210156120b8576120b761200a565b5b828203905092915050565b6000610100820190506120d9600083018b611c70565b6120e6602083018a611e0c565b6120f36040830189611e0c565b6121006060830188611c70565b61210d6080830187611e0c565b61211a60a0830186611c70565b61212760c0830185611e0c565b61213460e0830184611c70565b9998505050505050505050565b600061214c82611c66565b915061215783611c66565b9250817fffffffffffffffffffffffffffffffffffffffffffffffffffffffffffffffff04831182151516156121905761218f61200a565b5b828202905092915050565b7f4e487b7100000000000000000000000000000000000000000000000000000000600052601260045260246000fd5b60006121d582611c66565b91506121e083611c66565b9250826121f0576121ef61219b565b5b82820490509291505056fea26469706673582212206503cd0e0cf1b5536614c3d8a7abe70f81ae848eaa8f253dfa0bdd0d263d12ef64736f6c634300080a0033",
  "immutableReferences": {},
  "source": "pragma solidity ^0.8.0;\n\nimport \"./Token.sol\";\nimport \"openzeppelin-solidity/contracts/utils/math/SafeMath.sol\";\n\ncontract Exchange {\n    using SafeMath for uint256;\n\n    //variables\n    address public feeAccount; // the account that recieves exchange fees\n    uint256 public feePercent; // fee percentage\n    address constant ETHER = address(0); // store ether in tokens mapping with blank address\n    mapping(address => mapping(address => uint256)) public tokens;\n    mapping(uint256 => _Order) public orders;\n    uint256 public orderCount;\n    mapping (uint256 => bool) public orderCancelled;\n    mapping (uint256 => bool) public orderFilled;\n\n    //Events\n    event Deposit(address token, address user, uint256 amount, uint256 balance);\n    event Withdraw(address token, address user, uint256 amount, uint256 balance);\n    event Order (\n        uint256 id,\n        address user,\n        address tokenGet,\n        uint256 amountGet,\n        address tokenGive,\n        uint256 amountGive,\n        uint256 timestamp\n    );\n    event Cancel (\n        uint256 id,\n        address user,\n        address tokenGet,\n        uint256 amountGet,\n        address tokenGive,\n        uint256 amountGive,\n        uint256 timestamp\n    );\n    event Trade (\n        uint256 id,\n        address user,\n        address tokenGet,\n        uint256 amountGet,\n        address tokenGive,\n        uint256 amountGive,\n        address userFill,\n        uint256 timestamp\n    );\n\n    constructor(address _feeAccount, uint256 _feePercent) {\n        feeAccount = _feeAccount;\n        feePercent = _feePercent;\n    }\n\n    function depositToken(address _token, uint256 _amount) public {\n        require(_token != ETHER);\n        require(Token(_token).transferFrom(msg.sender, address(this), _amount));\n        tokens[_token][msg.sender] = tokens[_token][msg.sender].add(_amount);\n        emit Deposit(_token, msg.sender, _amount, tokens[_token][msg.sender]);\n    }\n\n    function withdrawToken(address _token, uint256 _amount) public {\n        require(_token != ETHER);\n        require(tokens[_token][msg.sender] >= _amount);\n        tokens[_token][msg.sender] = tokens[_token][msg.sender].sub(_amount);\n        require(Token(_token).transfer(msg.sender, _amount));\n        emit Withdraw(_token, msg.sender, _amount, tokens[_token][msg.sender]);\n    }\n\n    function depositEther() public payable {\n        tokens[ETHER][msg.sender] = tokens[ETHER][msg.sender].add(msg.value);\n        emit Deposit(ETHER, msg.sender, msg.value, tokens[ETHER][msg.sender]);\n    }\n\n    function withdrawEther(uint256 _amount) public payable {\n        require(tokens[ETHER][msg.sender] >= _amount);\n        tokens[ETHER][msg.sender] = tokens[ETHER][msg.sender].sub(_amount);\n        payable(msg.sender).transfer(_amount);\n        emit Withdraw(ETHER, msg.sender, _amount, tokens[ETHER][msg.sender]);\n    }\n\n    fallback() external {\n        revert();\n    }\n\n    function balanceOf(address _token, address _user) public view returns (uint256) {\n        return tokens[_token][_user];\n    }\n\n    function makeOrder(address _tokenGet, uint256 _amountGet, address _tokenGive, uint256 _amountGive) public {\n        orderCount = orderCount.add(1);\n        orders[orderCount] = _Order(orderCount, msg.sender, _tokenGet, _amountGet, _tokenGive, _amountGive, block.timestamp);\n        emit Order(orderCount, msg.sender, _tokenGet, _amountGet, _tokenGive, _amountGive, block.timestamp);\n\n    }\n\n    function cancelOrder(uint256 _id) public {\n        _Order storage _order = orders[_id];\n        require(address(_order.user) == msg.sender); //my order\n        require(_order.id == _id); //correct id \n        orderCancelled[_id] = true;\n        emit Cancel(_order.id, msg.sender, _order.tokenGet, _order.amountGet, _order.tokenGive, _order.amountGive, block.timestamp);\n    }\n\n    function fillOrder(uint256 _id) public {\n      require(_id > 0 && _id <= orderCount);\n      require(!orderFilled[_id]);\n      require(!orderCancelled[_id]);\n      _Order storage _order = orders[_id];\n      _trade(_order);\n      orderFilled[_order.id] = true;\n    }\n\n    function _trade(_Order storage _order) internal {\n        //fee paid by user who fill the order (msg.sender)\n        //fee deducted from amountGet\n        uint256 _feeAmount = _order.amountGive.mul(feePercent).div(100);\n\n        //execute trade \n        tokens[_order.tokenGet][msg.sender] = tokens[_order.tokenGet][msg.sender].sub(_order.amountGet.add(_feeAmount));\n        tokens[_order.tokenGet][_order.user] = tokens[_order.tokenGet][_order.user].add(_order.amountGet);\n        tokens[_order.tokenGet][feeAccount] = tokens[_order.tokenGet][feeAccount].add(_feeAmount);\n        tokens[_order.tokenGive][_order.user] = tokens[_order.tokenGive][_order.user].sub(_order.amountGive);\n        tokens[_order.tokenGive][msg.sender] = tokens[_order.tokenGive][msg.sender].add(_order.amountGive);\n\n        //emit trade event\n        emit Trade(_order.id, _order.user, _order.tokenGet, _order.amountGet, _order.tokenGive, _order.amountGive, msg.sender, block.timestamp);\n    }\n\n}\n\n\nstruct _Order {\n    uint256 id;\n    address user;\n    address tokenGet;\n    uint256 amountGet;\n    address tokenGive;\n    uint256 amountGive;\n    uint256 timestamp;\n}\n",
  "sourcePath": "/Users/binshakerr/blockchain-developer-bootcamp/src/contracts/Exchange.sol",
  "compiler": {
    "name": "solc",
    "version": "0.8.10+commit.fc410830.Emscripten.clang"
  },
  "schemaVersion": "3.4.3",
  "updatedAt": "2021-12-04T00:27:10.450Z",
  "networkType": "ethereum",
  "devdoc": {
    "kind": "dev",
    "methods": {},
    "version": 1
  },
  "userdoc": {
    "kind": "user",
    "methods": {},
    "version": 1
  }
}